:03000000020D836B
:0C0D8300787FE4F6D8FD758175020DCA7A
:10080000FFFFFFFFFFFFFFFFFFFFFFFFFFC0FFFF37
:10081000FFFFFFFFFFFFFFEFFFFFFFFFFF883FFF2F
:10082000FFFFFFFFFFFFFFE7FFFFFFFFFF8E1FFF41
:10083000FFFFFFFFFFFFFFC3FFFFFFFFFF878FFFEC
:10084000FFFFFFFFFFFFFFC1FFFF80001FC787FF04
:10085000FFFFFFFFFFFFFF99FFFF00000FE3C7FF50
:10086000FFFFFFFFFFF8FF18FFFC0139C7E3E3FFBD
:10087000FFFFFFFFFFF8FE3C3FFC77FFE1E3E1FFF6
:10088000FFFFFFFFFFF270FF0FF9FFFFF8E3F1FF3B
:10089000FFFFFFFFFFF238FF1FF1FFFFF8E3F1FF5B
:1008A000FFFFFFFFFFF23E3C7FC1FFFFF8E3F9FFD0
:1008B000FFFFFFFFFFE73F18FFCFFFFFF1E3F9FF67
:1008C000FFFFFFFFFE070F99FFCFFFFFFCE3F9FFDC
:1008D000FFFFFFFFFC1FC1C1FFC3FFFFF8E3F9FFEC
:1008E000FFFFFFFFFCFFF9C3FFE7FFFFC1E3F9FFD5
:1008F000FFFFFFFFFC1FC1E7FFE7FFFFC3E3F9FFB7
:10090000FFFFFFFFFC0703EFFFE07FFB87E3F9FF3B
:10091000FFFFFFFFFFC71FFFFFF07BF81FE3F9FF9B
:10092000FFFFFFFFFFE23FFFFFFE00E07FE3F9FF75
:10093000FFFFFFFFFFF23FFFFFFF0003FFE3F9FFB1
:10094000FFFFFFFFFFF27FFE0FFFFE0FFFE3F9FF48
:10095000FFFFFFFFFFF07FFC0FFFFFFFFFE3F9FF4B
:10096000FFFFFFFFFFF8FFF04FFFFFFFFFE7F9FF7B
:10097000FFFFFFFFFFF8FFE1CFFFFFFFFFE7F9FFFA
:10098000FFFFFFFFFFFFFFC3CFFFFFFFFFE7F1FF09
:10099000FFFFFFFFFFFFFF87CFFFFFFFFFC7F3FF53
:1009A000FFFFFFFFFFFFFF0FCFFFFFFFFF8FE3FF03
:1009B000FFFFFFFFFFFFFF1FC007FFFFFF0FC3FF8A
:1009C000FFFFFFFFFFFFFE3FC0001FFFFF1F87FF6E
:1009D000FFFFFFFFFFFFFE7FFFF01FFFFF3C0FFF4A
:1009E000FFFFFFFFFFFFFE01FFFF9FFFFF001FFF55
:1009F000FFFFFFFFFFFFFE00FFF01FFFFF00FFFFF5
:100A0000FFFFFFFFFFFFFFF87FFF1FFFFFFFFFFF5D
:100A1000FFFFFFFFFFFFFFFC7FFC1FFFFFFFFFFF4C
:100A2000FFFFFFFFFFFFFFFE3F003FFFFFFFFFFF56
:100A3000FFFFFFFFFFFFFFFE3E00FFFFFFFFFFFF87
:100A4000FFFFFFFFFFFFFFFF1E3FFFFFFFFFFFFF57
:100A5000FFFFFFFFFFFFFFFF1C7FFFFFFFFFFFFF09
:100A6000FFFFFFFFFFFFFFFF98FFFFFFFFFFFFFFFD
:100A7000FFFFFFFFFFFFFFFF80FFFFFFFFFFFFFF05
:100A8000FFFFFFFFFFFFFFFFC3FFFFFFFFFFFFFFB2
:100A9000FFFFFFFFFFFFFFFFC7FFFFFFFFFFFFFF9E
:100AA000FFFFFFFFFFFFFFFFFFFFFFFFFFFFFFFF56
:100AB000FFFFFFFFFFFFFFFFFFFFFFFFFFFFFFFF46
:100AC000FFFFFFFFFFFFFFFFFFFFFFFFFFFFFFFF36
:100AD000FFFFFFFFFFFFFFFFFFFFFFFFFFFFFFFF26
:100AE000FFFFFFFFFFFFFFFFFFFFFFFFFFFFFFFF16
:100AF000FFFFFFFFFFFFFFFFFFFFFFFFFFFFFFFF06
:100B0000FFFFFFFFFFFFFFFFFFFFFFFFFFFFFFFFF5
:100B1000FFFFFFFFFFFFFFFFFFFFFFFFFFFFFFFFE5
:100B2000FFFFFFFFFFFFFFFFFFFFFFFFFFFFFFFFD5
:100B3000FFFFFFFFFFFFFFFFFFFFFFFFFFFFFFFFC5
:100B4000FFFFFFFFFFFFFFFFFFFFFFFFFFFFFFFFB5
:100B5000FFFFFFFFFFFFFFFFFFFFFFFFFFFFFFFFA5
:100B6000FFFFFFFFFFFFFFFFFFFFFFFFFFFFFFFF95
:100B7000FFFFFFFFFFFFFFFFFFFFFFFFFFFFFFFF85
:100B8000FFFFFFFFFFFFFFFFFFFFFFFFFFFFFFFF75
:100B9000FFFFFFFFFFFFFFFFFFFFFFFFFFFFFFFF65
:100BA000FFFFFFFFFFFFFFFFFFFFFFFFFFFFFFFF55
:100BB000FFFFFFFFFFFFFFFFFFFFFFFFFFFFFFFF45
:100BC000FFFFFFFFFFFFFFFFFFFFFFFFFFFFFFFF35
:100BD000FFFFFFFFFFFFFFFFFFFFFFFFFFFFFFFF25
:100BE000FFFFFFFFFFFFFFFFFFFFFFFFFFFFFFFF15
:100BF000FFFFFFFFFFFFFFFFFFFFFFFFFFFFFFFF05
:100E0F000C0A53746172742047616D653F000D16B3
:100E1F00507265737320427574746F6E000A2747A2
:100E2F00616D65204F76657200202052000007FE2D
:100E3F0007FE047E047E07FE47806FF87FE07FF099
:100E4F003FFC1FF40FF007E00280028020203100EA
:100E5F0000018003C023C423C473CE73CE73CE733B
:100E6F00CE73CE73CE1FFC03C003C003C003C001FB
:0E0E7F005100022500000208000002230001BD
:090FE0007F301210407F017E00F9
:100FE900D3EF9400EE940040147D787C00ED1D70E1
:0D0FF900011CED4C70F7EF1F70E61E80E349
:0110060022C7
:1010A700C290D291D29200E5A020E7FBC292002223
:10102D007F011210407F0A7E00120FE97F361210E9
:03103D00407F30C1
:101040001210A7C290C291D292008FA000C292004B
:01105000227D
:10100700121040E4FF12101C12101C7F90121040A7
:051017007F2012101CF7
:10101C001210A7D290C291D292008FA000C292005F
:01102C0022A1
:100FB6007F327E00120FE9120FE0120FE07F0C1253
:100FC6000FE27F011210407F0A7E00120FE97F06B2
:0A0FD6001210407F017E00020FE9B7
:060F0B008B728A738974E9
:100F1100EDFB7A0064017005757580801FEB64023A
:100F21004A70057575908014EB64034A70057575F8
:100F3100888009EB64044A7003757598E5752FFF85
:100F4100121040E4F575AB72AA73A974121092C322
:100F5100E5759FE49E5017AB72AA73A974857582DB
:0E0F6100758300120F89FF12101C057580D8D1
:010F6F00225F
:040E8E008E728F735E
:100E9200E4FBFAEB2480FF1210407F80121040E442
:100EA200FCFD857382857283E493FF12101C057327
:100EB200E573700205720DBD00010CED64104C70FB
:100EC200E10BBB00010AEB64204A70C7E4FAFBEBBA
:100ED2002480FF1210407F88121040E4FCFD8573CD
:100EE20082857283E493FF12101C0573E57370020E
:100EF20005720DBD00010CED64104C70E10BBB00DE
:080F0200010AEB64204A70C7EC
:010F0A0022C4
:02107500AE07C4
:10107700C3749F9EFF121040E4FF12101C7F0212E0
:0A108700101CAF06EF6003121017F3
:01109100223C
:10105100ED2440FF121040E4FDFC120F70FF12104E
:101061001C740129F9E43AFA0DBD00010CED64206C
:031071004C70E7D9
:011074002259
:100C0000120FB67B007A007952E4FD1210517A007F
:100C100079317D101210517F341210407E087F0010
:100C2000120E8E7F301210407580FE7B007A0079A4
:100C30000A7D027F01120F0B7B007A0079167D037B
:100C40007F01120F0B2084FD12102D7F981210408F
:100C5000E4FF12101C12101C7FE87E03120FE92023
:100C600084097525007526017580FFE52664024517
:100C700025705DE50964034508701A7F90121040E5
:100C8000E4FF12101C12101C7F8012101475080053
:100C9000750902803BE50964024508700D7F8812E2
:100CA00010077508007509018026E50964014508EB
:100CB000701E7F98121040E4FF12101C12101C7F4F
:100CC00088121014E4F508F509F525F5267580FE5F
:100CD000E52664014525705BE5094508701A7F88A3
:100CE000121040E4FF12101C12101C7F98121014F6
:100CF000750800750901803BE50964014508701A13
:100D00007F90121040E4FF12101C12101C7F8812FA
:100D100010147508007509028019E5096402450878
:100D200070117F8012100775080075090375250082
:100D3000752602AF511210750551E55164087025F2
:100D4000F523F524E50965247004E5086523701290
:100D500012102D7B007A0079277D04E4FF120F0B1F
:100D600080FEE4F5517F907E01120FE9E5244523D2
:100D70006003020C5F7F9812101475230075240124
:030D8000020C5F03
:100D8F00020C00E493A3F8E493A34003F68001F26E
:100D9F0008DFF48029E493A3F85407240CC8C33365
:100DAF00C4540F4420C8834004F456800146F6DF34
:100DBF00E4800B0102040810204080900E0FE47EA7
:100DCF00019360BCA3FF543F30E509541FFEE49329
:100DDF00A360010ECF54C025E060A840B8E493A3F0
:100DEF00FAE493A3F8E493A3C8C582C8CAC583CA1B
:100DFF00F0A3C8C582C8CAC583CADFE9DEE780BED3
:010E8D000064
:100F7000BB010689828A83E0225002E722BBFE027F
:090F8000E32289828A83E49322B2
:100F8900BB010CE58229F582E5833AF583E022501D
:100F990006E92582F8E622BBFE06E92582F8E22267
:0D0FA900E58229F582E5833AF583E4932281
:10109200E4FFFE120F70600C0FEF70010E09E97091
:0510A200F20A80EF22BC
:00000001FF
